:020000040800F2
:1000000000050020A5010008132000083B1C000883
:1000100011200008690800084327000800000000BC
:10002000000000000000000000000000C1210008E6
:100030006B0800080000000015200008C32100081C
:10004000BF010008BF010008BF010008BF01000890
:10005000BF010008BF010008BF010008BF01000880
:10006000BF010008BF010008BF010008BF01000870
:10007000BF010008BF010008BF010008BF01000860
:10008000BF010008BF010008BF010008BF01000850
:10009000BF010008BF010008BF010008BF01000840
:1000A000BF010008BF010008BF010008BF01000830
:1000B000BF0100080000000000000000BF010008B0
:1000C000BF010008BF010008BF010008BF01000810
:1000D000BF010008BF010008BF010008BF01000800
:1000E000BF010008BF010008000000000000000080
:1000F0000000000000000000000000000000000000
:1001000000000000BF01000800000000BF0100085F
:100110000000000000000000BF010008BF0100084F
:10012000BF010008BF010008BF010008BF010008AF
:10013000BF010008000000000000000000000000F7
:10014000BF010008BF010008BF0100080000000057
:10015000BF010008BF010008BF010008BF0100087F
:10016000BF010008BF010008BF0100080000000037
:10017000BF010008BF0100080000000000000000EF
:10018000BF010008BF010008BF010008DFF810D060
:1001900000F058FB00480047ED300008AFF3008046
:1001A000000500200648804706480047FEE7FEE7B6
:1001B000FEE7FEE7FEE7FEE7FEE7FEE7FEE7FEE717
:1001C000352200088D0100082DE9F05F054600206A
:1001D00092469B4688460646814640241BE02846B8
:1001E00041464746224600F029FA53465A46C01A6D
:1001F000914110D311461846224600F010FA2D1AEC
:1002000067EB01084F4622460120002100F007FA63
:1002100017EB00094E41201EA4F10104DFDC484623
:1002200031462A46434600F000B830BCBDE8C09FC6
:10023000D2B201E000F8012B491EFBD27047002228
:10024000F6E710B513460A4604461946FFF7F0FFD5
:10025000204610BD2DE9FE4F804681EA0300C00F05
:100260000C46009021F0004123F00045B8EB02005D
:10027000A94105D24046214690461C460B460246FF
:1002800023F00040104347D0270DC7F30A00C3F303
:100290000A510290401A019040286BDAC3F3130010
:1002A00040F4801B0098924620B10023D2EB030A51
:1002B00063EB0B0B01985946C0F14002504600F029
:1002C000AEF906460D4650465946019A00F0C6F969
:1002D00010EB08006141002487EA115284EAE773B9
:1002E0001A4340D0009A62B3019A012A4FEA07529A
:1002F00015DC001B61EB02014FF0004202EA0752DD
:10030000CDE90042001C41F5801132462B4600F039
:100310001BFA03B000F045B840462146F9E7001B40
:1003200061EB0201001C41F5801300185B412018AD
:10033000A2F5001747EB030140EAD570B6196D41ED
:1003400011E06D084FEA360645EAC0754FEA0752DC
:10035000001B61EB0201001C41F5801149084FEAC6
:1003600030000019514132462B4603B000F01CB852
:1003700000F0DBB90098012240000023D0EB02021C
:1003800063EBE073009821464FEAE074B8EB00009D
:1003900061EB0401E9E783F000435BE781F0004192
:1003A00058E730BCBDE8C08F30BCBDE8C04FFFF798
:1003B000DFBF2DE9FE4F81EA030404F0004421F081
:1003C000004100944FF0000B23F0004350EA010479
:1003D0005ED052EA03045BD0C3F30A54C1F30A555A
:1003E0002C44A4F2F3340194A0FB0254C1F3130192
:1003F00041F48011C3F3130343F4801301FB02445F
:1004000000FB034E840A970A44EA815447EA835763
:10041000A4FB076802958D0A05FB07854FEA932C1C
:1004200004FB0C542705029D4FEA065847EA16378D
:10043000B5EB08056EEB070C870E920E47EA8117A5
:1004400042EA8312A7FB0201B6EB0B0164EB000446
:100450002B0D43EA0C335E1844EB1C50DA46514630
:10046000E7FB0201C5F313044FEA0B3343EA1453CD
:100470004FEA0432019C43EA0603A4F10C040294FF
:10048000009CCDE900B400F05FF903B000F003B8C0
:1004900000200146F9E730BCBDE8C08F2DE9F04DE2
:1004A00081EA030404F0004B21F0004514464FF0AC
:1004B000000A23F0004150EA050220D054EA01026C
:1004C0001DD0C5F30A570246C5F31303C1F3130049
:1004D000C1F30A5640F4801543F48013A7EB0608D5
:1004E000101BD64608F2FD3873EB050002D308F165
:1004F000010801E092185B41B8F1000F03DA002017
:100500000146BDE8F08D00204FF480110646844678
:100510000EE0171B73EB050705D3121B63EB0503F6
:1005200006434CEA010C49084FEA300092185B413F
:1005300050EA0107EDD152EA030012D082EA04002A
:1005400083EA0501084305D0101BAB4106D2012206
:10055000002306E000224FF0004302E06FF00102AA
:1005600053101AEB06004CEB085110EB0A0041EB5C
:100570000B01BDE8F04D00F0D8B80EB540F23341A4
:1005800002910021CDE900110A460B4600F0DCF88B
:1005900003B000BD00F0004230F000400AD0C10DB1
:1005A00001F56071C0F3160042EA0151C20840072C
:1005B0001143704700200146704701F0004330B4FA
:1005C00021F0004150EA010206D00A0DA2F5607246
:1005D000C1F31301002A02DC30BC00207047440F35
:1005E00044EAC104C100E01830BC00EBC25000F086
:1005F00047B830B50B46014600202022012409E00F
:1006000021FA02F59D4205D303FA02F5491B04FACB
:1006100002F52844151EA2F10102F1DC30BD202AAA
:1006200004DB203A00FA02F1002070479140C2F149
:10063000200320FA03F3194390407047202A04DB7B
:10064000203A21FA02F00021704721FA02F3D0404B
:10065000C2F120029140084319467047202A06DB68
:10066000CB17203A41FA02F043EAE07306E041FA80
:1006700002F3D040C2F1200291400843194670476E
:100680000029A8BF7047401C490008BF20F00100A6
:10069000704710B4B0FA80FC00FA0CF050EA010484
:1006A00004BF10BC704749B1CCF1200421FA04F416
:1006B00011FA0CF118BF012121430843A3EB0C01EF
:1006C000CB1D4FEA00614FEA102042BF002010BC52
:1006D000704700EBC35010440029A4BF10BC704702
:1006E000401C490008BF20F0010010BC704710B545
:1006F00041000CD0C0F3C751962908DC7E2909DCE3
:1007000006DB410204D000F0004040F07E5010BDF6
:10071000002010BDC1F19604C4F1200100FA01F1DE
:10072000E040FFF7ADFFA04010BD10B5141E73F1FF
:10073000000408DA401C41F1000192185B411A43A1
:1007400001D120F0010010BD2DE9F04D92469B46ED
:1007500011B1B1FA81F202E0B0FA80F22032904693
:10076000FFF75DFF04460F4640EA0A0041EA0B012D
:1007700053465A46084313D0114653EA010019D094
:10078000C8F140025046FFF759FF05460E46504655
:1007900059464246FFF743FF084305D0012004E0D5
:1007A00020463946BDE8F08D0020054346EAE07654
:1007B0002C4337430A986305E40AA0EB08000022A3
:1007C000FD0A44EA47540A3002D500200146E9E711
:1007D000010510196941DDE9084500196941BDE8C5
:1007E000F04DA2E7C1F30A52C1F3130140F2FF3307
:1007F00041F480119A4202DA00200146704740F22B
:1008000033439A42A2F2334202DC5242FFF716BF50
:10081000FFF705BF30B5041E71F1000404DB4FF093
:100820000044404264EB0101141E73F1000405DB37
:100830001C464FF00043524263EB0403994208BF49
:10084000904230BD064C074D06E0E06840F00103E1
:1008500094E8070098471034AC42F6D3FFF79AFCAF
:10086000D8310008F8310008FEE7704772B6FEE79D
:1008700070B5044600F0FAF80546601C02D0044842
:100880000078044400F0F2F8401BA042FAD370BD97
:10089000000000202DE9F04FDFF8AC910023032584
:1008A000A9F1040B85B04FF0010C0F2709F1040AE0
:1008B000ABF1040EBFE000BF0CFA03F6324075D076
:1008C0000C7904F00304012C01D0022C1BD18468A4
:1008D00000945C0005FA04F80494009C24EA0804DF
:1008E0000094D1F80C80049C08FA04F8009C48EAB3
:1008F0000408C0F808804468B4430E79C6F30016B3
:100900009E40264346600C79E443A4070AD0C4689D
:100910004FEA430805FA08F6B4438E6806FA08F66B
:100920002643C6600C7904F00304022C10D1DC08C5
:1009300000EB84040294246A5E074FEAD66807FA43
:1009400008F6B4430E6906FA08F62643029C2662AE
:1009500004684FEA430805FA08F6B4430E7906F036
:10096000030606FA08F6264306604C6814F4403F76
:1009700060D0364C266E46F001062666246E23F0C3
:10098000030604F001040094314C34440294A4683A
:100990009E074FEA167807FA08F6B443B0F1904F75
:1009A00005D02C4EB04204D1012612E042E00026D0
:1009B0000FE0294EB04201D102260AE0274EB04294
:1009C00001D1032605E0264EB04201D1042600E005
:1009D000072606FA08F62643029CA660D9F80060AE
:1009E0004C46D1F8048096435FEAC82800D51643E8
:1009F0002660DAF800405646D1F8048094435FEA56
:100A0000882800D514433460DBF800405E46D1F8F6
:100A1000048094435FEA883800D514433460DEF8DC
:100A200000407646D1F8048094435FEAC83800D588
:100A3000144334605B1C0A6832FA03F47FF43CAF61
:100A400005B000F00FB8000008040140001002409B
:100A5000000001400004004800080048000C004865
:100A60000010004830BCBDE8C08F0000014880681D
:100A7000704700000000002090F84120202A24D177
:100A800090F84020012A20D0012280F84020242222
:100A900080F841200268136823F0010313600268A4
:100AA000136823F480531360026813680B431360C8
:100AB00001680A6842F001020A60202180F84110B2
:100AC000002180F84010084670470220704790F8D7
:100AD0004120202A22D190F84020012A1ED0012254
:100AE00080F84020242280F841200268136823F017
:100AF000010313600268136823F4706343EA012161
:100B0000116001680A6842F001020A60202180F841
:100B10004110002180F840100846704702207047BD
:100B200070B5040004D094F84100002510B106E02F
:100B3000012070BD84F84050204600F079F924204F
:100B400084F841002068016821F0010101606068BB
:100B5000216820F0706008612068816821F40041FC
:100B60008160E0680128A06807D040F40440216853
:100B70008860E068022803D006E040F40040F6E711
:100B800021684FF40060486020684168114A1143B1
:100B900041602068C16821F40041C160D4E90401CA
:100BA0000843A16940EA01202168C860D4E907012F
:100BB0000843216808602068016841F00101016074
:100BC0006564202084F84100256384F842500020A9
:100BD00070BD0000008000022DE9F84F044690F837
:100BE0004100DDF828A01F4690468B4620287ED184
:100BF00094F8400001287AD0012084F84000FFF7E3
:100C000035FF0646012200901923D103204601F04A
:100C1000CFF8E0BB222084F84100102084F8420085
:100C200000256564C4F8248067856563618D31485B
:100C3000FF274FF080784FF00079FF2903D92785EF
:100C40003A46009039E0618D218500903AE059469E
:100C5000204601F095F813E001F0D6F8B8B9206805
:100C6000406A616A0870606A401C6062208D401EA4
:100C700080B22085618D491E6185618D01B168B1A9
:100C8000608D3246002851462046E5D100E002E062
:100C900001F008F9D0B1012000F030B8534600222D
:100CA00080212046009601F083F80028F3D1608D62
:100CB000FF2804D927853A4600954346C7E7608D4B
:100CC0002085009594F828204B46C0E72168202015
:100CD000C86121684A68084B1A404A6084F841009C
:100CE00084F8425084F840500020D5E7FFE7022006
:100CF000D2E700000024008000E800FE18BCBDE838
:100D0000E08F00002DE9F84F044690F84100DDF82F
:100D100028A01F4690468B4620287ED194F840009C
:100D200001287AD0012084F84000FFF79FFE064694
:100D3000012200901923D103204601F039F8E0BBCD
:100D4000212084F84100102084F8420000256564C9
:100D5000C4F8248067856563618D3148FF274FF0B3
:100D600080784FF00079FF2903D927853A46009013
:100D700039E0618D218500903AE05946204600F027
:100D8000FFFF13E001F0B4F8B8B9606A2168007899
:100D90008862606A401C6062608D401E6085208DA4
:100DA000401E80B22085618D01B168B1608D3246F0
:100DB000002851462046E5D100E002E001F072F83B
:100DC000D0B1012000F030B85346002280212046E7
:100DD000009600F0EDFF0028F3D1608DFF2804D9C4
:100DE00027853A4600954346C7E7608D20850095E4
:100DF00094F828204B46C0E721682020C86121686C
:100E00004A68084B1A404A6084F8410084F842500E
:100E100084F840500020D5E7FFE70220D2E7000029
:100E20000020008000E800FE18BCBDE8E08F000054
:100E300030B59DB00446142117A8FFF700FA5C21D5
:100E40006846FFF7FCF916492068884226D18015CC
:100E5000002500900E95684600F0E6F808B1FFF70F
:100E600005FD104CE06C40F00400E064E06C17AA53
:100E700000F004001C900320122182E823001A9045
:100E800004201B9017A90848FFF704FDA06D40F44B
:100E90000000A065A06D00F400001C901DB030BDE6
:100EA000005C0040001002400008004802488168D1
:100EB00002781144816070470000002010B50024C2
:100EC000032000F063F80F2000F008F808B10124B7
:100ED00001E000F025F8204610BD000070B50E4E70
:100EE00005460024307898B14FF47A71B1FBF0F0E8
:100EF0000A490968B1FBF0F000F0BCFD40B9102DC3
:100F000006D200222946501E00F020F8756000E04D
:100F10000124204670BD0000000000200C000020CD
:100F2000094808B5016E41F001010166016E01F04A
:100F300001010091816D41F080518165806D00F06B
:100F40008050009008BD000000100240F0B40E4B2D
:100F50001B680C46C3F30223C3F10705042D00D917
:100F60000425191D072901D2002300E0DB1E0126FC
:100F700006FA05F1491E214099409E40761E164012
:100F80003143F0BC01F0EEBB0CED00E0064900F08F
:100F9000070208684FF6FF03184040EA0220034AA0
:100FA00010430860704700000CED00E00000FA05F7
:100FB0001649B0F5007F0868C0F3412009D0022827
:100FC00005D0086820F4C06040F48060086000200C
:100FD00070470128FBD0086820F4C06040F400701E
:100FE00008600B483222006850430A4AB0FBF2F016
:100FF000401C00E0401E4A69520501D50028F9D185
:1010000048694005E3D503207047000000700040A8
:101010000C00002040420F000248006800F4C0604D
:1010200070470000007000402DE9F84F044600278B
:101030000088A84D3E46000515D5606C60B1B0F53E
:10104000000F04D0B0F5400F2BD001270AE0E8686C
:1010500040F48030E86024E00021201D00F0DCFF37
:1010600007001ED03E46206880033AD5A86D4FF099
:101070000008C00009D4A86D40F08050A865A86D94
:101080004FF0010800F080500090DFF84CA2DAF831
:10109000001041F48071CAF80010FFF7E7FC8146A8
:1010A00010E0D5F88800616C20F440000843C5F8D2
:1010B0008800D8E7FFF7DAFCA0EB0900022801D985
:1010C000032705E0DAF80000C005F3D5002F7DD036
:1010D0004FEA0706B8F1000F03D0A86D20F080504A
:1010E000A8652078C00707D0D5F88800216A20F0CD
:1010F00003000843C5F888002078800707D5D5F895
:101100008800616A20F00C000843C5F88800207848
:10111000400707D5D5F88800A16A20F030000843C1
:10112000C5F888002078800607D5D5F88800E16AE0
:1011300020F440600843C5F888002088800507D562
:10114000D5F88800E16B20F440200843C5F88800FA
:101150002088400507D5D5F88800216C20F4401080
:101160000843C5F888002078400607D5D5F88800E0
:10117000216B20F440500843C5F888002078000611
:1011800007D5D5F88800616B20F440400843C5F8C6
:1011900088002088C00507D5D5F88800A16B20F409
:1011A00040300843C5F8880020684FF0006700030E
:1011B0004FF0806850D5D5F88800A16C20F04060D1
:1011C0000843C5F88800A06CB84200E005E03BD1B8
:1011D000E86840F48010E8603EE0D5F8900010F434
:1011E000407014D0A16D814211D0D5F89000D5F88F
:1011F000901020F4407041F48031C5F89010D5F87B
:10120000901021F48031C5F89010C5F89000C00707
:1012100011D0FFF72BFC074641F2883907E000BFE9
:10122000FFF724FCC11B494501D9032652E7D5F835
:1012300090008007F4D5D5F89000A16D20F440709F
:101240000843C5F8900045E7404505D10121201D20
:1012500000F0E2FE00B106462068400317D5D5F83D
:101260008800E16C20F040600843C5F88800E06C1D
:10127000B84204D1E86840F48010E86007E04045D7
:1012800005D10121201D00F0C7FE00B106462088CF
:10129000400411D5D5F88800216D20F04050084356
:1012A000C5F88800206DB0F1805F05D10221201DB6
:1012B00000F0B2FE00B106462088000406D555F8BD
:1012C000880F616D20F0804008432860304600F0B0
:1012D00005B80000001002400070004018BCBDE8D6
:1012E000E08F00002DE9F0470F4605006BD0494E16
:1012F000306800F00700B84209D2306820F00700DB
:1013000038433060306800F00700B8425BD128787D
:10131000414C80070AD5A868A16801F0F001884215
:1013200004D9A16821F0F0010143A1602878C00729
:101330002CD06868032811D0022812D0216898B1F7
:10134000490500293FDAA16821F003010143A160AA
:10135000FFF78CFB804641F2883910E02168890153
:10136000EFE721688903ECE78907EAE7FFF77EFBEF
:10137000A0EB0801494502D90320BDE8F087A06829
:10138000696800F00C00B0EB810FEFD1287880077E
:101390000AD5A868A16801F0F001884204D2A168CA
:1013A00021F0F0010143A160306800F00700B8426D
:1013B0000BD9306820F0070038433060306800F007
:1013C0000700B84201D00120D7E72878400705D5AB
:1013D000A068E96820F4E0600843A060287800076E
:1013E00006D5A068296920F4605040EAC100A060D9
:1013F00000F03EF8A168094AC1F30311515C01F005
:101400001F01C8400649086006480068BDE8F0476B
:10141000FFF764BD00200240001002409031000838
:101420000C00002004000020054806490068896877
:10143000054AC1F30221515C01F01F01C840704709
:101440000C00002000100240D03100080548064979
:1014500000688968054AC1F3C221515C01F01F018F
:10146000C84070470C00002000100240D031000836
:1014700070B52549002318468A68CC6812F00C0222
:1014800004F00306214C4FEA640509D00C2A05D06C
:10149000042A32D0082A00D1284670BD012E10D16E
:1014A0000B681B0704D4D1F89430C3F3032302E084
:1014B0000B68C3F30313164E56F82330DAB10C2A27
:1014C000EBD1C86800F00300022818D0032818D018
:1014D0001846CA68CB68C2F30212C3F3062343431B
:1014E000521CB3FBF2F2C868C0F34160401C4000DC
:1014F000B2FBF0F070BD184670BD204670BD2046AE
:10150000E7E72846E5E70000001002400024F40069
:10151000A03100082DE9F84304006FD0FA4DA86807
:1015200000F00C06E86800F003072078C00664D5D8
:1015300076B10C2E01D1012F0AD0A06900282868AD
:101540007AD040F001002860FFF790FA80465DE015
:101550002868800702D5A0690028DED0216A2868A3
:10156000000703D5286800F0F00004E0D5F89400E7
:10157000F02202EA1010814216D9084600F0E2FD7E
:1015800000283BD1286840F0080028602868216ABC
:1015900020F0F000084328606868E16920F47F408B
:1015A00040EA0120686016E0286840F008002860E2
:1015B0002868216A20F0F000084328606868E16923
:1015C00020F47F4040EA0120686026B9206A00F0DC
:1015D000B9FD0028D5D1FFF74BFFA968CB4AC1F36D
:1015E0000311515C01F01F01C840C9490860C94896
:1015F0000068FFF773FC00287ED12EE0CAE000BF30
:10160000FFF734FAA0EB0800022876D82868800794
:10161000F6D5286840F0080028602868216A20F084
:10162000F000084328606868E16920F47F4040EAE0
:101630000120686011E0FFE720F001002860FFF75B
:1016400015FA804606E000BFFFF710FAA0EB08008D
:101650000228DAD828688007F6D42078C00740D05E
:10166000082E18D00C2E01D1032F14D06068B0F5CD
:10167000803F17D0B0F5A02F286817D020F4803015
:101680002860286820F4802028606068E0B1FFF7B7
:10169000EDF9804614E02868800322D560680028B0
:1016A00078D01EE0286840F48030EDE740F48020D8
:1016B0002860F7E7FFF7DAF9A0EB08006428A4D860
:1016C00028688003F6D50CE0FFF7D0F9804605E0E6
:1016D000FFF7CCF9A0EB0800642896D828688003AF
:1016E000F6D4207880073BD5042E11D00C2E01D1E2
:1016F000022F0DD0E06801E0AAE1FFE00028286891
:101700001ED040F480702860FFF7B0F907460CE067
:10171000286840050CD5E0680028C1D008E000BF6B
:10172000FFF7A4F9C01B022893D828684005F7D515
:101730006868217C20F0F85040EA016068600FE0A2
:1017400020F480702860FFF791F9074605E000BF9C
:10175000FFF78CF9C01B0228B1D828684005F7D4E0
:101760002078000729D560690028D5F8940012D0A8
:1017700040F00100C5F89400FFF778F9074604E04F
:10178000FFF774F9C01B022899D8D5F89400800798
:10179000F6D512E02BE120F00100C5F89400FFF728
:1017A00065F9074605E000BFFFF760F9C01B022896
:1017B00085D8D5F894008007F6D42078400766D500
:1017C000A86D0027C00008D4A86D40F08050A8651F
:1017D000A86D012700F0805000904F480168C905AE
:1017E00012D40168814641F480710160FFF73EF92F
:1017F000804605E0FFF73AF9A0EB080002287DD803
:10180000D9F80000C005F5D5A068012816D0052834
:10181000D5F8900017D020F00100C5F89000D5F859
:10182000900020F0040000BFC5F89000A06841F2CD
:101830008839C0B1FFF71AF980460FE0D5F890005B
:1018400040F00100F0E740F00400C5F89000F5E733
:10185000FFF70CF9A0EB080149454FD8D5F89000E7
:101860008007F5D50EE0FFF701F9804606E000BFDE
:10187000FFF7FCF8A0EB080149453FD8D5F89000E8
:101880008007F5D41FB1A86D20F08050A86520789E
:10189000800628D5606A0028D5F8980012D040F05C
:1018A0000100C5F89800FFF7E1F8074605E000BF22
:1018B000FFF7DCF8C01B022820D8D5F89800800775
:1018C000F6D510E020F00100C5F89800FFF7CEF83B
:1018D000074604E0FFF7CAF8C01B02280ED8D5F867
:1018E00098008007F6D4A06AF0B3022816D00C2E18
:1018F0007DD0286820F08070286000E0A7E0FFF726
:10190000B5F80446A6E0000000100240903100083F
:101910000C0000200400002000700040E868E26A2B
:1019200000F00301914228D1216B00F070020901FF
:101930001039914221D1626B00F4FE41B1EB022FCC
:101940001BD194F8382000F07841B1EBC26F14D16C
:10195000A18F00F4C00249084905A1F50011914288
:101960000BD194F8401000E06AE04908490600F005
:10197000C060A1F1007181424BD00C2E73D0286859
:10198000400170D4286820F080702860FFF76EF85E
:10199000064604E0FFF76AF8801B022857D828683B
:1019A0008001F7D4F4E90B016FF00F0202EB011193
:1019B0000843218A5204490802EB4151A26841EAD6
:1019C00002210843217D4FF07E42490802EB41612C
:1019D0000843217B40EAC160E968244A114008437A
:1019E000E860286840F080702860E86800E03AE02D
:1019F00040F08070E860FFF739F8044605E000BF6A
:101A0000FFF734F8001B022821D828688001F7D599
:101A100027E02868800124D4286840F0807028607E
:101A2000E86840F08070E860FFF720F8044604E0C2
:101A3000FFF71CF8001B022809D828688001F7D599
:101A40000FE000BFFFF712F8001B022802D90320A5
:101A5000BDE8F88328688001F4D4E86804490840A8
:101A6000E8600020F4E70120F2E700008C809D018F
:101A7000FCFFEEFE10B5401EB0F1807F01D30120C7
:101A800010BD4FF0E02460610F21601700F06AFE86
:101A90000020A06107202061002010BD10B50400C7
:101AA00002D0A06F10B107E0012010BD002084F823
:101AB0007400204600F026F82420A0672068016802
:101AC00021F001010160204600F0D8FC0128ECD093
:101AD000606A10B1204600F03FFC2068416821F4A4
:101AE000904141602068816821F02A01816020686E
:101AF000016841F0010101602046BDE8104000F09E
:101B00008FBC000010B59EB00446142117A8FEF744
:101B100096FB5C216846FEF792FB184920688842D4
:101B200029D101200024009008946846FFF77CFA30
:101B300008B1FEF79BFE1248016E41F48041016638
:101B4000016E01F480411C91C16C41F00101C1643E
:101B5000C06C17A900F001001C904FF4C0601790F2
:101B60000220CDE9180403201A9007201B904FF0A3
:101B70009040FEF78FFE1EB010BD000000380140FF
:101B8000001002402DE9F8430446806F1F461646B8
:101B90000D4620284FD1CDB1C6B194F8740001286C
:101BA00049D0012084F874004FF00008C4F8808008
:101BB0002120A067FEF75AFFA4F850608146A4F8E0
:101BC0005260A068B0F5805F03D004E00120BDE85A
:101BD000F883206928B12E465FF0000584F87480F0
:101BE00010E00026FAE78021204600F047FDB8B952
:101BF000C6B116F8010B21680885B4F85200401EE2
:101C0000A4F85200B4F852004B464FF0000200977F
:101C10000028E8D14FF04001204600F02FFD30B100
:101C20000320D4E735F8020BC0F30800E3E72020D7
:101C3000A0670020CBE70220C9E7FEE701688A69B8
:101C4000D243920701D400228A6200688169C943A5
:101C5000C90703D0816941F001018161704700002B
:101C60002DE9F047044600688A4617468169002539
:101C70002E46C906A9464FF0200849D51021C1615A
:101C800037E000BFBAF1FF3F33D0FEF7EFFEC11BD4
:101C9000514502D8BAF1000F2BD12068416894F861
:101CA000422001F480418369DB431B041CD4B1F55D
:101CB000804F19D0202A17D0416841F480414160FB
:101CC000FEF7D4FE07460FE0FEF7D0FEC01B192832
:101CD0000AD9606C40F02000606484F8418084F888
:101CE000429084F84090012520688069C0438006B6
:101CF000EAD420688069C043800602D5002DC1D097
:101D000003E015B92168C1F81C8046F004060125DE
:101D100021688869C20505D54FF4807246F0010636
:101D2000CA610125410509D522684FF4806146F05A
:101D30000806D1610125800502D40AE0800507D597
:101D400021684FF4007046F00206C861012500E0EA
:101D50008DB12046FFF772FF54F8240B4168074A03
:101D600011404160206A3043206284F81D8084F86D
:101D70001E9084F81C902846BDE8F08700E800FE1D
:101D800010B5C1F3090141EA02410268029C1943FE
:101D90002143506821F000414FF4806303EA54531B
:101DA000024C234398430843506010BDFF63FF0378
:101DB0002DE9F0411D4617460E460446DDF8188011
:101DC00008E0681C06D0FEF751FEA0EB0800A84210
:101DD0000BD855B12068806936EA000012D0002087
:101DE000B842EED00020BDE8F08154F8440F40F036
:101DF000200044F80409202060700020A0702070AA
:101E00000120F0E70120EBE72DE9F0412026904684
:101E10000F460446002530E0424639462046FFF78B
:101E20001FFF10BB20688069C04380061ED4206855
:101E30008169C943490701D4218D19BB8169C9430F
:101E4000C90604D41021C1610420606400E0656407
:101E50002068C66120684168114A1140416084F8D9
:101E6000416084F8425084F8405016E0FEF7FEFDD1
:101E7000A0EB0800B84208D83FB120688069C04391
:101E80004007C9D40020BDE8F08154F8440F40F069
:101E9000200044F80409667025700120F3E7000073
:101EA00000E800FE70B516460D4604460DE03246C9
:101EB00029462046FFF7D4FE08B1012070BDFEF789
:101EC000D5FD801BA84207D835B120688069C04382
:101ED0008006ECD4002070BD54F8440F40F0200080
:101EE00044F80409202060700020A0702070E4E70E
:101EF00070B516460D4604460FE032462946204688
:101F0000FFF7AEFE08B1012070BD681C05D0FEF7DA
:101F1000ADFD801BA84207D835B120688069C04359
:101F20008007EAD4002070BD54F8440F40F0200030
:101F300044F80409202060700020A0702070E2E7BF
:101F40000D4808B5C16C41F00401C164C16C01F0D9
:101F500004010091C16C41F08001C164C16C01F0C9
:101F600080010091C16C41F00101C164C06C00F0BE
:101F70000100009008BD000000100240134810B599
:101F8000114901601249416000210122C0E9021299
:101F9000016141618161C1610162FEF7C1FD08B16A
:101FA000FEF764FC00210948FEF766FD08B1FEF764
:101FB0005DFC00210548FEF78AFD002803D0BDE83E
:101FC0001040FEF753BC10BD005C0040280000200C
:101FD000EC9C90100D4810B50B4901604FF4E131B5
:101FE0004160002181600C22C160C0E9041281615E
:101FF000C16101624162FFF751FD002803D0BDE8D5
:102000001040FEF733BC10BD003801407C000020BA
:10201000FEE7FEE7704700002DE9F041444C05461D
:102020008846E0680026810728680DD0E16801F045
:102030000301814216D1A8B1E0686968C0F30210BB
:10204000401C88420ED120E0012804D0022805D08F
:10205000032807D108E02168890701E021684905C4
:10206000002907DB01265FE02168890302D421688B
:102070004903F5E7E1686A686FF00F0321F0730127
:1020800003EB021211430143E160206820F08060FD
:102090002060FEF7EBFC074605E000BFFEF7E6FC1C
:1020A000C01B022837D820680001F7D4B8F1000F10
:1020B00018D0B8F1010F1DD0287D4FF07E414008A7
:1020C00001EB4060A96840EA01202169194A1140EA
:1020D00008432061206840F080602060FEF7C6FC65
:1020E00007461AE0A868297B000240EAC16021691E
:1020F000114AECE7288A1149400801EB4050A968D1
:1021000040EA012021690E4AE1E700BFFEF7AEFC7C
:10211000C01B022801D9032606E020680001F5D57E
:102120002069A969084320613046BDE8F0810000BC
:1021300000100240FF80FFF9FF80FF070000E0FF72
:10214000FF809FFFF8B51C4D06460024A86DC00017
:1021500002D5FEF761FF0DE0A86D40F08050A86544
:10216000A86D00F080500090FEF756FFA96D21F099
:102170008051A965B0F5007F04D0802E07D94FF0BB
:1021800003040AE0802E08D9A02E01D804E001D172
:10219000022402E0702E00D101240848016821F0D9
:1021A000070121430160006800F00700A04201D050
:1021B0000120F8BD0020F8BD0010024000200240C0
:1021C0007047FEF773BE10B596B044216846FEF71F
:1021D00036F8142111A8FEF732F84FF40070FEF71C
:1021E000E7FE08B172B6FEE701210804CDE9001050
:1021F000022003240A90CDE90B4114210D910721FF
:10220000CDE90E1010906846FFF784F908B172B658
:10221000FEE70F20CDE911040020139014901590D3
:10222000042111A8FFF75EF8002801D072B6FEE77E
:1022300016B010BD0248016841F47001016070479A
:1022400088ED00E030B50C462DED028B81B04FF6E5
:10225000FF750246022388211A480095FEF752FDB9
:1022600006232246892117480095FEF7B5FC6078C1
:10227000217800EB0120FEF780F99FED131B53EC52
:10228000112BFEF70BF99FED121B53EC112BFEF7F0
:1022900090F89FED111B53EC112BFEF77CF8FEF725
:1022A0008CF900EE100AB2EE048A20EE080A00F063
:1022B00069FAF0EE400A01B080EE880ABDEC028BAC
:1022C00030BD00002800002000000000E0FFEF40CB
:1022D0000000000000E06540000000000080464073
:1022E00030B50C462DED028B81B04FF6FF750246DE
:1022F0000223882115480095FEF704FD0623224697
:10230000892112480095FEF767FC2079E17800EBFF
:10231000012064214843FEF730F99FED0D1B53EC7B
:10232000112BFEF7BBF8FEF748F900EE100AB2EEEB
:10233000048A20EE080A00F025FAF0EE400A01B007
:1023400080EE880ABDEC028B30BD00002800002022
:1023500000000000E0FFEF4090F82410C90706D00D
:1023600001684A68836A22F400321A434A6090F88E
:102370002410890706D501684A68C36A22F48032AE
:102380001A434A6090F82410490706D501684A6844
:10239000036B22F480221A434A6090F82410090744
:1023A00006D501684A68436B22F400421A434A602A
:1023B00090F82410C90606D501688A68836B22F458
:1023C00080521A438A6090F82410890606D5016865
:1023D0008A68C36B22F400521A438A6090F8241072
:1023E000490611D501684A68036C22F480121A4329
:1023F0004A60016CB1F5801F06D101684A68436CE0
:1024000022F4C0021A434A6090F82410090606D547
:1024100001684A68806C22F4002202434A607047D7
:10242000F8B500260446C0F88060FEF71FFB05469D
:10243000206800686FF07E47000708D52B46002211
:102440004FF400112046009700F018F960B9206899
:10245000006840070AD52B4600224FF48001204631
:10246000009700F00BF908B10320F8BD2020A06709
:10247000E067266684F874600020F8BD2DE9F0411D
:102480000446016880682269E36910436269002597
:102490001A431043714F0A68714B1A4002430A6095
:1024A00020684168E26821F440511143416021688D
:1024B000A069B94201D0226A10438A6822F43062CE
:1024C00002438A606749236867488B420DD1D0F880
:1024D000880010F0030006D0012847D0022843D01E
:1024E000032830D144E001212EE060498B420BD11A
:1024F000D0F8880010F00C0034D0042836D008281A
:1025000032D00C281FD133E059498B420BD1D0F87F
:10251000880010F0300025D0102827D0202823D0A4
:10252000302810D124E0BB420DD1D0F8880010F43F
:10253000406017D0B0F5806F18D0B0F5006F13D0A1
:10254000B0F5406F14D010214A4A00264FF40040E5
:10255000BB422FD171B102290FD004290FD0082915
:1025600073D10FE00021EFE70221EDE70421EBE753
:102570000821E9E7FEF758FF03E0104602E0FEF706
:1025800077FFE8B3626802EB420181425DD8B0EBAD
:10259000023F5AD8010E0302500818187141002357
:1025A000FDF712FE344AA0F5407191424DD82168E2
:1025B000C8604BE0E3694FF6EF77834228D10929E1
:1025C00043D2DFE801F005080B420D424242100001
:1025D000FEF72AFF06E0FEF739FF03E0104602E0AF
:1025E000FEF746FF60B14100606801EB5001B1FBAE
:1025F000F0F0A0F11001B94227D84FF6F07100E0D9
:1026000024E00140C0F3420001432068C1601DE0A6
:1026100009291AD2DFE801F005080B190D1919195B
:102620001000FEF701FF06E0FEF710FF03E0104682
:1026300002E0FEF71DFF48B1616800EB5100B0FBFE
:10264000F1F0A0F11001B94205D9012566662846CE
:10265000A666BDE8F08180B2A9E7000000800040D6
:10266000F369FFEF003801400010024000440040D1
:10267000004800400024F400FFFC0F002DE9F04763
:102680009A4617460E4604464FF000094FF02008C0
:10269000089D4AE0681C48D0FEF7E8F9A0EB0A0064
:1026A000A8422AD84DB32068016849073DD5C069C2
:1026B000C043000539D421684FF4006008622068E7
:1026C00050E8001F21F4D07140E80012002AF6D132
:1026D0002068083050E8001F21F0010140E8001296
:1026E000002AF5D1C4F87880C4F87C80C4F88080D2
:1026F00084F874900320BDE8F087216851E8000F4A
:1027000020F4D07041E80002002AF6D12068083099
:1027100050E8001F21F0010140E80012002AF5D125
:10272000C4F87880C4F87C80E2E72068C06936EAA3
:10273000000004D00020B842ACD00020DBE701202C
:10274000F9E7FEE70FB4054B10B503A9044A029858
:1027500000F03AF910BC5DF814FB0000D530000819
:10276000240000200907090E002804DB00F1E02006
:1027700080F80014704700F00F0000F1E02080F8AE
:10278000141D704710B52DED028BB0EE408A18EE87
:10279000100AFDF7ACFF01EE100A18EE100AB7EEB2
:1027A000000A78EE410A10F0004F4FF07F4010EE23
:1027B000901A12D0B1F13F4F24BF10EE901AB0EB37
:1027C000410F12D210EE901AB1F17C5F1CDD10EEB9
:1027D000901AB0EB410F17D314E0B1F13F4F07D976
:1027E00010EE901AB0EB410F02D331EE401A0BE01D
:1027F00010EE901AB1F17C5F06DB10EE901AB0EB90
:10280000410F01D331EE001A18EE100ABDEC028B15
:1028100011EE101A61F31E0000EE100A10BD02E066
:1028200008C8121F08C1002AFAD17047704700205B
:1028300001E001C1121F002AFBD170472DE9FF5FA3
:1028400082B00021DDE90430020DDDF840B0034321
:1028500018D044F61050A2F2FF32424315141198DA
:1028600001281FD0A5EB0B00401C5FEA000A4FF0C7
:1028700000064E4FDFF83891B046504615D5CAF1E4
:10288000000413E0119801244AA3012801D16FEA42
:102890000B010298119AC0E90031C0E9024206B06A
:1028A00000F08EB8CBF10000DFE704460021404A7B
:1028B000491842EB0450CDE9001012E0E00707D0C0
:1028C00032463B4640464946FDF773FD8046894601
:1028D00032463B4610461946FDF76BFD06460F464D
:1028E0006410002CEAD1DDE90401DDE90023BAF12E
:1028F000000F06DAFDF75DFD42464B46FDF759FD38
:1029000005E0FDF7CBFD42464B46FDF7C7FD04460B
:102910000E460022284BFDF77DFF03D84FF0FF3015
:10292000014607E00022254B20463146FDF792FC88
:10293000FDF758FF102409E0002C0ADB0A220023CF
:10294000FDF742FC039B30321A55641E50EA010227
:10295000F2D1641C039AC4F111031444119A012AA0
:1029600003D0012208430DD10AE0084304D000201F
:102970004FF0110B119072E7A3EB0B056D1E0DE0EC
:102980005B4504DD4FF0000205F1010504E003DAC8
:102990004FF00002A5F10105002AECD00298119930
:1029A000C0E90231C0E9004579E7000000001440A9
:1029B0000000F03F300000000000F0430000E03F66
:1029C00030BCBDE8C09F00002DE9FF4F95B09A468E
:1029D000884606460025EEE1252877D100242746C3
:1029E000F94A0121039400E0044316F8013F203B1B
:1029F00001FA03F01042F7D130782A2811D06FF095
:102A00002F033078A0F13002092A16D8039A44F037
:102A1000020402EB820203EB42021044761C039094
:102A2000EFE758F8042B0392002A03DA504244F4EB
:102A30000054039044F00204761C30782E2816D1FE
:102A400016F8010F44F004042A280DD06FF02F026D
:102A50003078A0F13003092B09D807EB870302EB8C
:102A60004303C718761CF3E758F8047B761C3078CC
:102A70006C280FD006DC4C2817D068280DD06A28A7
:102A800014D104E0742810D07A280FD10DE044F45A
:102A900000140AE044F4801401E044F44014727815
:102AA000824202D104F58014761C761C30786628A8
:102AB0000BD013DC582877D009DC002875D04528C6
:102AC000F6D04628F4D047281AD193E118E06328BD
:102AD00035D0642879D0652812D18BE1702873D065
:102AE00008DC6728F1D069286FD06E280DD06F28D8
:102AF00006D1ACE073282CD0752874D0782853D038
:102B00005246179990476D1C54E1C4F302500228B5
:102B100009D003280DD0D8F8001004280DD00D607E
:102B200008F1040846E1D8F80010EA17C1E900529C
:102B3000F6E7D8F800100D80F2E70D70F0E718F80E
:102B4000041B8DF8001000208DF80100EB460120D9
:102B500003E058F804BB4FF0FF3061074FF000016D
:102B600002D40DE009F101018946B9420FDA81452D
:102B7000F8DB1BF809100029F4D108E009F1010184
:102B800089468142FADB1BF809100029F6D1039827
:102B90005346A0EB090721463846179A00F083FAFE
:102BA000284400EB090507E044E008E10DE01BF8CC
:102BB000010B524617999047B9F10109F7D25346D4
:102BC00021463846179AF2E039E00A21C4F302524E
:102BD0004FF0000B0091022A06D058F8040BC117E1
:102BE000032A09D00AE023E008F1070020F00702D9
:102BF000F2E80201904605E000B2C117042A01D1B3
:102C000040B2C117002906DA0A460021404261EBB2
:102C100002012D2202E0220504D52B228DF804208A
:102C2000012203E0E20701D02022F7E7914657E0B6
:102C30000A2100E010214FF0000B00910BE0102161
:102C40004FF0000B44F004040827009103E0082033
:102C50004FF0000B0090C4F30252022A05D058F83E
:102C6000040B0021032A08D008E008F1070020F037
:102C70000702F2E80201904603E080B2042A00D184
:102C8000C0B24FF0000922072AD53278702A07D047
:102C9000DDF800C08CF0100C5CEA0B0C05D00EE0E7
:102CA00040228DF80420012208E050EA010306D0FA
:102CB00030238DF804308DF8052002229146009BC8
:102CC00083F0080353EA0B030AD150EA010201D151
:102CD000620705D530228DF804204FF001097F1ED0
:102CE0003278582A04D039A20C920CAA02920BE036
:102CF0003BA2F9E75B46009AFDF766FA0C9B9B5CEA
:102D0000029A521E0292137050EA0102F2D1029806
:102D100004A9081A00F1200B600702D524F48034BE
:102D200000E001275F4502DDA7EB0B0000E000207B
:102D300000EB0B01009003984944401A0390E00314
:102D400006D453462146179A039800F0ACF905447F
:102D5000002706E001A85246C05D179990476D1CF8
:102D60007F1C4F45F6DBE0030CD553462146179AEE
:102D7000039800F098F9054404E030205246179972
:102D800090476D1C0099481E00900029F5DC08E072
:102D90000298029952460078491C0291179990476F
:102DA0006D1CBBF10001ABF1010BF1DC5BE100F04C
:102DB00068F90544761C307800287FF40DAE19B010
:102DC000284600F05BB90000092801003031323399
:102DD0003435363738396162636465660000000057
:102DE0003031323334353637383941424344454641
:102DF00000000000600700D4062708F1070020F05B
:102E00000700F0E80223804603F0004C5FEA0C0064
:102E100001D097A009E0200501D596A005E0E007C4
:102E200001D095A001E0AFF24C001390307823F070
:102E3000004365280CD006DC452809D046281DD063
:102E400047287FD13BE0662818D067287AD136E042
:102E50000021112F01DB112000E0781CCDE90001D9
:102E600004A90CA8FFF7EAFCDDE90D010C9A4FF06C
:102E7000000B07F10109109200914EE04FF0004065
:102E80000097CDE9011004A90CA8FFF7D7FCDDE9F4
:102E90000D020C9B0F994FF0000B9146109300927E
:102EA00011B9791C00EB0109B7EB090003D4C0F19B
:102EB000FF3B07F10109A9EB0700019042E0012F58
:102EC00000DA01270021112F01DD112000E0384632
:102ED000CDE9000104A90CA8FFF7B0FCDDE90D0164
:102EE0000C9A00914FF0000BB946109221070FD4B5
:102EF000009A4A4503DA914601E0A9F10109B9F1C6
:102F0000010F05DD109AA9F10101515C3029F4D0BF
:102F1000B84202DA10F1040F03DA0121CDE9011001
:102F200010E0002803DC8344A9EB000102E0411C0F
:102F3000494500DD8946A0EB0B00401C01904FF095
:102F400000400290200705D40198484502DB4FF06D
:102F5000FF30019000208DF84B0002980DF14B07D7
:102F6000B0F1004F25D002200C902B200D9002983C
:102F700000280CDA404202902D200D9007E00A2133
:102F80000298FDF736FB3031029007F8011D0C99CD
:102F9000481E0C900029F2DC02980028EFD1791E1F
:102FA0000D980870307800F0200040F0450007F8D8
:102FB000020D11A8C01BC01D02901398007800B12B
:102FC000012000EB0901019801EBE0710298014436
:102FD0000398401A401E0390E00306D4534621464E
:102FE000179A039800F05FF805441398007818B119
:102FF0005246179990476D1CE00323D5534621464E
:10300000179A039800F04FF805441BE0BBF1000F3E
:1030100007DB0098584504DD1098179910F80B004D
:1030200001E0179930205246904701980BF1010BAF
:10303000401E05F10105019004D12E20524617993A
:1030400090476D1CB9F10001A9F10109DEDC05E032
:1030500017F8010B5246179990476D1C0299481EAC
:1030600002900029F4DC53462146179A03989EE605
:103070002D0000002B0000002000000030BCBDE847
:10308000C08F2DE9F041044600251E4617468804EE
:1030900004D405E039462020B0476D1C641EF9D5E4
:1030A0002846BDE8F0812DE9F041044600251E4682
:1030B0009046C80301D5302700E02027880404D5B6
:1030C00005E041463846B0476D1C641EF9D52846D8
:1030D000BDE8F08113B54FF6FF730122694602483F
:1030E000FEF750FD00981CBD7C0000201CB5FDF7CC
:1030F000E5FEFFF768F8FEF723FFFEF73FFFFEF758
:1031000069FF134C134F41F288384046FDF7B0FB7E
:1031100011491248FFF796F884ED000A0E490F484E
:10312000FFF7DEF887ED000A10EE100AFDF732FA1D
:1031300005460E462068FDF72DFA41EC100BCDE94F
:10314000005653EC102B06A0FFF7FCFADDE7000059
:103150001C00002020000020120000201000002091
:103160000D0A5348543330206754656D70657261A1
:10317000747572653A20252E3166202C20674875BB
:103180006D69646974793A20252E31660D0A000054
:103190000000000000000000010203040607080907
:1031A000A0860100400D0300801A060000350C00C7
:1031B00040420F0080841E0000093D0000127A008A
:1031C0000024F40000366E010048E801006CDC02C7
:1031D0000000000001020304F83100080000002094
:1031E000280000001E2800082032000828000020C7
:1031F000D80400002E280008010000001000000084
:103200000000000000093D002C0600000000000046
:1032100000000000000000000000000000000000AE
:040000050800018D61
:00000001FF
